{
  "contractName": "Arbitrage",
  "abi": [
    {
      "inputs": [],
      "stateMutability": "nonpayable",
      "type": "constructor"
    },
    {
      "inputs": [
        {
          "internalType": "bytes32",
          "name": "",
          "type": "bytes32"
        }
      ],
      "name": "trades",
      "outputs": [
        {
          "internalType": "address",
          "name": "trader",
          "type": "address"
        },
        {
          "internalType": "uint256",
          "name": "amount",
          "type": "uint256"
        }
      ],
      "stateMutability": "view",
      "type": "function",
      "constant": true
    },
    {
      "inputs": [
        {
          "internalType": "address",
          "name": "trader",
          "type": "address"
        },
        {
          "internalType": "uint256",
          "name": "amount",
          "type": "uint256"
        }
      ],
      "name": "performArb",
      "outputs": [
        {
          "internalType": "bytes32",
          "name": "",
          "type": "bytes32"
        }
      ],
      "stateMutability": "nonpayable",
      "type": "function"
    },
    {
      "inputs": [
        {
          "internalType": "bytes32",
          "name": "key",
          "type": "bytes32"
        }
      ],
      "name": "retrieveArb",
      "outputs": [
        {
          "internalType": "address",
          "name": "",
          "type": "address"
        },
        {
          "internalType": "uint256",
          "name": "",
          "type": "uint256"
        }
      ],
      "stateMutability": "view",
      "type": "function",
      "constant": true
    },
    {
      "inputs": [
        {
          "internalType": "address",
          "name": "trader",
          "type": "address"
        },
        {
          "internalType": "uint256",
          "name": "amount",
          "type": "uint256"
        }
      ],
      "name": "getKey",
      "outputs": [
        {
          "internalType": "bytes32",
          "name": "",
          "type": "bytes32"
        }
      ],
      "stateMutability": "pure",
      "type": "function",
      "constant": true
    }
  ],
  "bytecode": "0x608060405234801561001057600080fd5b50610549806100206000396000f3fe608060405234801561001057600080fd5b506004361061004b5760003560e01c8062162420146100505780637dfe4c1f14610081578063a369f72e146100b1578063d65e29e9146100e1575b600080fd5b61006a6004803603810190610065919061030c565b610112565b604051610078929190610393565b60405180910390f35b61009b60048036038101906100969190610414565b610156565b6040516100a89190610463565b60405180910390f35b6100cb60048036038101906100c69190610414565b610206565b6040516100d89190610463565b60405180910390f35b6100fb60048036038101906100f6919061030c565b610239565b604051610109929190610393565b60405180910390f35b60006020528060005260406000206000915090508060000160009054906101000a900473ffffffffffffffffffffffffffffffffffffffff16908060010154905082565b6000806101638484610206565b9050600060405180604001604052808673ffffffffffffffffffffffffffffffffffffffff1681526020018581525090508060008084815260200190815260200160002060008201518160000160006101000a81548173ffffffffffffffffffffffffffffffffffffffff021916908373ffffffffffffffffffffffffffffffffffffffff16021790555060208201518160010155905050819250505092915050565b6000828260405160200161021b9291906104e7565b60405160208183030381529060405280519060200120905092915050565b60008060008060008581526020019081526020016000206040518060400160405290816000820160009054906101000a900473ffffffffffffffffffffffffffffffffffffffff1673ffffffffffffffffffffffffffffffffffffffff1673ffffffffffffffffffffffffffffffffffffffff1681526020016001820154815250509050806000015181602001519250925050915091565b600080fd5b6000819050919050565b6102e9816102d6565b81146102f457600080fd5b50565b600081359050610306816102e0565b92915050565b600060208284031215610322576103216102d1565b5b6000610330848285016102f7565b91505092915050565b600073ffffffffffffffffffffffffffffffffffffffff82169050919050565b600061036482610339565b9050919050565b61037481610359565b82525050565b6000819050919050565b61038d8161037a565b82525050565b60006040820190506103a8600083018561036b565b6103b56020830184610384565b9392505050565b6103c581610359565b81146103d057600080fd5b50565b6000813590506103e2816103bc565b92915050565b6103f18161037a565b81146103fc57600080fd5b50565b60008135905061040e816103e8565b92915050565b6000806040838503121561042b5761042a6102d1565b5b6000610439858286016103d3565b925050602061044a858286016103ff565b9150509250929050565b61045d816102d6565b82525050565b60006020820190506104786000830184610454565b92915050565b60008160601b9050919050565b60006104968261047e565b9050919050565b60006104a88261048b565b9050919050565b6104c06104bb82610359565b61049d565b82525050565b6000819050919050565b6104e16104dc8261037a565b6104c6565b82525050565b60006104f382856104af565b60148201915061050382846104d0565b602082019150819050939250505056fea26469706673582212208857c7c44440bbbdab63b44ffd5bb31a9df645a951117c9be741fed2a91b53c664736f6c634300080c0033",
  "immutableReferences": {},
  "source": "// SPDX-License-Identifier: MIT\npragma solidity >=0.4.22 <0.9.0;\n\ncontract Arbitrage {\n  struct Arb {\n    address trader;\n    uint256 amount;    \n  }\n\n  mapping(bytes32 => Arb) public trades;\n\n  constructor() {\n  } \n\n  function performArb \n    (\n      address trader, \n      uint256 amount\n    ) public \n    returns (bytes32) {\n      \n    bytes32 key = getKey(trader, amount);\n    Arb memory arb = Arb(trader, amount);\n    trades[key] = arb;\n    return key;\n  }\n\n  function retrieveArb\n  (\n    bytes32 key\n  ) public view\n  returns(address, uint256)\n  {\n    Arb memory trade = trades[key];\n    return (trade.trader, trade.amount);\n  }\n\n  function getKey\n  (\n    address trader,\n    uint256 amount\n  ) public pure\n  returns (bytes32) \n  {\n    return keccak256(abi.encodePacked(trader, amount));\n  }\n}\n",
  "sourcePath": "C:\\ws\\blockchain-env-docker\\Contracts\\contracts\\Arbitrage.sol",
  "compiler": {
    "name": "solc",
    "version": "0.8.12+commit.f00d7308.Emscripten.clang"
  },
  "schemaVersion": "3.4.6",
  "updatedAt": "2022-04-03T16:17:46.375Z",
  "networkType": "ethereum",
  "devdoc": {
    "kind": "dev",
    "methods": {},
    "version": 1
  },
  "userdoc": {
    "kind": "user",
    "methods": {},
    "version": 1
  }
}