{
  "contractName": "Arbitrage",
  "abi": [
    {
      "inputs": [],
      "stateMutability": "nonpayable",
      "type": "constructor"
    },
    {
      "inputs": [
        {
          "internalType": "bytes32",
          "name": "",
          "type": "bytes32"
        }
      ],
      "name": "trades",
      "outputs": [
        {
          "internalType": "address",
          "name": "trader",
          "type": "address"
        },
        {
          "internalType": "uint256",
          "name": "amount",
          "type": "uint256"
        }
      ],
      "stateMutability": "view",
      "type": "function",
      "constant": true
    },
    {
      "inputs": [
        {
          "internalType": "address",
          "name": "trader",
          "type": "address"
        },
        {
          "internalType": "uint256",
          "name": "amount",
          "type": "uint256"
        }
      ],
      "name": "performArb",
      "outputs": [
        {
          "internalType": "bytes32",
          "name": "",
          "type": "bytes32"
        }
      ],
      "stateMutability": "nonpayable",
      "type": "function"
    },
    {
      "inputs": [
        {
          "internalType": "bytes32",
          "name": "key",
          "type": "bytes32"
        }
      ],
      "name": "retrieveArb",
      "outputs": [
        {
          "internalType": "address",
          "name": "",
          "type": "address"
        },
        {
          "internalType": "uint256",
          "name": "",
          "type": "uint256"
        }
      ],
      "stateMutability": "view",
      "type": "function",
      "constant": true
    },
    {
      "inputs": [
        {
          "internalType": "address",
          "name": "trader",
          "type": "address"
        },
        {
          "internalType": "uint256",
          "name": "amount",
          "type": "uint256"
        }
      ],
      "name": "getKey",
      "outputs": [
        {
          "internalType": "bytes32",
          "name": "",
          "type": "bytes32"
        }
      ],
      "stateMutability": "pure",
      "type": "function",
      "constant": true
    }
  ],
  "bytecode": "0x608060405234801561001057600080fd5b50610568806100206000396000f3fe608060405234801561001057600080fd5b506004361061004b5760003560e01c8062162420146100505780637dfe4c1f14610081578063a369f72e146100b1578063d65e29e9146100e1575b600080fd5b61006a6004803603810190610065919061032b565b610112565b6040516100789291906103b2565b60405180910390f35b61009b60048036038101906100969190610433565b610156565b6040516100a89190610482565b60405180910390f35b6100cb60048036038101906100c69190610433565b610225565b6040516100d89190610482565b60405180910390f35b6100fb60048036038101906100f6919061032b565b610258565b6040516101099291906103b2565b60405180910390f35b60006020528060005260406000206000915090508060000160009054906101000a900473ffffffffffffffffffffffffffffffffffffffff16908060010154905082565b600080838360405160200161016c929190610506565b604051602081830303815290604052805190602001209050600060405180604001604052808673ffffffffffffffffffffffffffffffffffffffff1681526020018581525090508060008084815260200190815260200160002060008201518160000160006101000a81548173ffffffffffffffffffffffffffffffffffffffff021916908373ffffffffffffffffffffffffffffffffffffffff16021790555060208201518160010155905050819250505092915050565b6000828260405160200161023a929190610506565b60405160208183030381529060405280519060200120905092915050565b60008060008060008581526020019081526020016000206040518060400160405290816000820160009054906101000a900473ffffffffffffffffffffffffffffffffffffffff1673ffffffffffffffffffffffffffffffffffffffff1673ffffffffffffffffffffffffffffffffffffffff1681526020016001820154815250509050806000015181602001519250925050915091565b600080fd5b6000819050919050565b610308816102f5565b811461031357600080fd5b50565b600081359050610325816102ff565b92915050565b600060208284031215610341576103406102f0565b5b600061034f84828501610316565b91505092915050565b600073ffffffffffffffffffffffffffffffffffffffff82169050919050565b600061038382610358565b9050919050565b61039381610378565b82525050565b6000819050919050565b6103ac81610399565b82525050565b60006040820190506103c7600083018561038a565b6103d460208301846103a3565b9392505050565b6103e481610378565b81146103ef57600080fd5b50565b600081359050610401816103db565b92915050565b61041081610399565b811461041b57600080fd5b50565b60008135905061042d81610407565b92915050565b6000806040838503121561044a576104496102f0565b5b6000610458858286016103f2565b92505060206104698582860161041e565b9150509250929050565b61047c816102f5565b82525050565b60006020820190506104976000830184610473565b92915050565b60008160601b9050919050565b60006104b58261049d565b9050919050565b60006104c7826104aa565b9050919050565b6104df6104da82610378565b6104bc565b82525050565b6000819050919050565b6105006104fb82610399565b6104e5565b82525050565b600061051282856104ce565b60148201915061052282846104ef565b602082019150819050939250505056fea26469706673582212204fe8d486d422ed6c5ed842c3783c6e4c2fa5dfa8605df4a9b7a6fa96f6f1f8f264736f6c634300080c0033",
  "immutableReferences": {},
  "source": "// SPDX-License-Identifier: MIT\npragma solidity >=0.4.22 <0.9.0;\n\ncontract Arbitrage {\n  struct Arb {\n    address trader;\n    uint256 amount;    \n  }\n\n  mapping(bytes32 => Arb) public trades;\n\n  constructor() {\n  } \n\n  function performArb \n    (\n      address trader, \n      uint256 amount\n    ) public \n    returns (bytes32) {\n      \n    bytes32 key = keccak256(abi.encodePacked(trader, amount));\n    Arb memory arb = Arb(trader, amount);\n    trades[key] = arb;\n    return key;\n  }\n\n  function retrieveArb\n  (\n    bytes32 key\n  ) public view\n  returns(address, uint256)\n  {\n    Arb memory trade = trades[key];\n    return (trade.trader, trade.amount);\n  }\n\n  function getKey\n  (\n    address trader,\n    uint256 amount\n  ) public pure\n  returns (bytes32) \n  {\n    return keccak256(abi.encodePacked(trader, amount));\n  }\n}\n",
  "sourcePath": "C:\\ws\\blockchain-env-docker\\Contracts\\contracts\\Arbitrage.sol",
  "compiler": {
    "name": "solc",
    "version": "0.8.12+commit.f00d7308.Emscripten.clang"
  },
  "schemaVersion": "3.4.6",
  "updatedAt": "2022-04-03T16:09:50.988Z",
  "networkType": "ethereum",
  "devdoc": {
    "kind": "dev",
    "methods": {},
    "version": 1
  },
  "userdoc": {
    "kind": "user",
    "methods": {},
    "version": 1
  }
}