{
  "contractName": "Arbitrage",
  "abi": [
    {
      "inputs": [],
      "stateMutability": "nonpayable",
      "type": "constructor"
    },
    {
      "anonymous": false,
      "inputs": [
        {
          "indexed": false,
          "internalType": "bytes32",
          "name": "key",
          "type": "bytes32"
        }
      ],
      "name": "arbPerformed",
      "type": "event"
    },
    {
      "inputs": [
        {
          "internalType": "bytes32",
          "name": "",
          "type": "bytes32"
        }
      ],
      "name": "trades",
      "outputs": [
        {
          "internalType": "address",
          "name": "trader",
          "type": "address"
        },
        {
          "internalType": "uint256",
          "name": "amount",
          "type": "uint256"
        }
      ],
      "stateMutability": "view",
      "type": "function",
      "constant": true
    },
    {
      "inputs": [
        {
          "internalType": "uint256",
          "name": "amount",
          "type": "uint256"
        }
      ],
      "name": "performArb",
      "outputs": [],
      "stateMutability": "nonpayable",
      "type": "function"
    },
    {
      "inputs": [
        {
          "internalType": "bytes32",
          "name": "key",
          "type": "bytes32"
        }
      ],
      "name": "retrieveArb",
      "outputs": [
        {
          "internalType": "address",
          "name": "",
          "type": "address"
        },
        {
          "internalType": "uint256",
          "name": "",
          "type": "uint256"
        }
      ],
      "stateMutability": "view",
      "type": "function",
      "constant": true
    },
    {
      "inputs": [
        {
          "internalType": "address",
          "name": "trader",
          "type": "address"
        },
        {
          "internalType": "uint256",
          "name": "amount",
          "type": "uint256"
        }
      ],
      "name": "getKey",
      "outputs": [
        {
          "internalType": "bytes32",
          "name": "",
          "type": "bytes32"
        }
      ],
      "stateMutability": "pure",
      "type": "function",
      "constant": true
    }
  ],
  "bytecode": "0x608060405234801561001057600080fd5b5061067a806100206000396000f3fe608060405234801561001057600080fd5b506004361061004b5760003560e01c8062162420146100505780631e5edbb314610081578063a369f72e1461009d578063d65e29e9146100cd575b600080fd5b61006a6004803603810190610065919061036d565b6100fe565b6040516100789291906103f4565b60405180910390f35b61009b60048036038101906100969190610449565b610142565b005b6100b760048036038101906100b291906104a2565b610267565b6040516100c491906104f1565b60405180910390f35b6100e760048036038101906100e2919061036d565b61029a565b6040516100f59291906103f4565b60405180910390f35b60006020528060005260406000206000915090508060000160009054906101000a900473ffffffffffffffffffffffffffffffffffffffff16908060010154905082565b8060008111610186576040517f08c379a000000000000000000000000000000000000000000000000000000000815260040161017d9061058f565b60405180910390fd5b60006101923384610267565b9050600060405180604001604052803373ffffffffffffffffffffffffffffffffffffffff1681526020018581525090508060008084815260200190815260200160002060008201518160000160006101000a81548173ffffffffffffffffffffffffffffffffffffffff021916908373ffffffffffffffffffffffffffffffffffffffff160217905550602082015181600101559050507fb2349ac38d3b32737bc52ff39e755a51d17a5454e4374dac94078e9358d014118260405161025991906104f1565b60405180910390a150505050565b6000828260405160200161027c929190610618565b60405160208183030381529060405280519060200120905092915050565b60008060008060008581526020019081526020016000206040518060400160405290816000820160009054906101000a900473ffffffffffffffffffffffffffffffffffffffff1673ffffffffffffffffffffffffffffffffffffffff1673ffffffffffffffffffffffffffffffffffffffff1681526020016001820154815250509050806000015181602001519250925050915091565b600080fd5b6000819050919050565b61034a81610337565b811461035557600080fd5b50565b60008135905061036781610341565b92915050565b60006020828403121561038357610382610332565b5b600061039184828501610358565b91505092915050565b600073ffffffffffffffffffffffffffffffffffffffff82169050919050565b60006103c58261039a565b9050919050565b6103d5816103ba565b82525050565b6000819050919050565b6103ee816103db565b82525050565b600060408201905061040960008301856103cc565b61041660208301846103e5565b9392505050565b610426816103db565b811461043157600080fd5b50565b6000813590506104438161041d565b92915050565b60006020828403121561045f5761045e610332565b5b600061046d84828501610434565b91505092915050565b61047f816103ba565b811461048a57600080fd5b50565b60008135905061049c81610476565b92915050565b600080604083850312156104b9576104b8610332565b5b60006104c78582860161048d565b92505060206104d885828601610434565b9150509250929050565b6104eb81610337565b82525050565b600060208201905061050660008301846104e2565b92915050565b600082825260208201905092915050565b7f416d6f756e7420737570706c696564206973206c657373207468616e206f722060008201527f657175616c20746f207a65726f00000000000000000000000000000000000000602082015250565b6000610579602d8361050c565b91506105848261051d565b604082019050919050565b600060208201905081810360008301526105a88161056c565b9050919050565b60008160601b9050919050565b60006105c7826105af565b9050919050565b60006105d9826105bc565b9050919050565b6105f16105ec826103ba565b6105ce565b82525050565b6000819050919050565b61061261060d826103db565b6105f7565b82525050565b600061062482856105e0565b6014820191506106348284610601565b602082019150819050939250505056fea26469706673582212204591c850816465ff3eefbd4ccf86385a188bac4185b504828d0fdfeb349e0bed64736f6c634300080c0033",
  "immutableReferences": {},
  "source": "// SPDX-License-Identifier: MIT\npragma solidity >=0.4.22 <0.9.0;\n\ncontract Arbitrage {\n  struct Arb {\n    address trader;\n    uint256 amount;    \n  }\n\n  mapping(bytes32 => Arb) public trades;\n\n  event arbPerformed(bytes32 key);\n\n  modifier isValidAmount(uint256 amount)\n  {\n    require(amount > 0, \"Amount supplied is less than or equal to zero\");\n    _;\n  }\n\n  constructor() {\n  } \n\n  function performArb \n                    (     \n                      uint256 amount\n                    ) \n                    public \n                    isValidAmount(amount)\n  {\n      \n    bytes32 key = getKey(msg.sender, amount);\n    Arb memory arb = Arb(msg.sender, amount);\n    trades[key] = arb;\n    \n    emit arbPerformed(key);\n  }\n\n  function retrieveArb\n                    (\n                      bytes32 key\n                    ) \n                    public \n                    view\n                    returns(address, uint256)\n  {\n    Arb memory trade = trades[key];\n    return (trade.trader, trade.amount);\n  }\n\n  function getKey\n                (\n                  address trader,\n                  uint256 amount\n                ) \n                public \n                pure\n                returns (bytes32) \n  {\n    return keccak256(abi.encodePacked(trader, amount));\n  }\n}\n",
  "sourcePath": "C:\\ws\\blockchain-env-docker\\Contracts\\contracts\\Arbitrage.sol",
  "compiler": {
    "name": "solc",
    "version": "0.8.12+commit.f00d7308.Emscripten.clang"
  },
  "schemaVersion": "3.4.6",
  "updatedAt": "2022-04-03T17:03:18.954Z",
  "networkType": "ethereum",
  "devdoc": {
    "kind": "dev",
    "methods": {},
    "version": 1
  },
  "userdoc": {
    "kind": "user",
    "methods": {},
    "version": 1
  }
}