{
  "contractName": "Arbitrage",
  "abi": [
    {
      "inputs": [],
      "stateMutability": "nonpayable",
      "type": "constructor"
    },
    {
      "inputs": [
        {
          "internalType": "bytes32",
          "name": "",
          "type": "bytes32"
        }
      ],
      "name": "trades",
      "outputs": [
        {
          "internalType": "address",
          "name": "trader",
          "type": "address"
        },
        {
          "internalType": "uint256",
          "name": "amount",
          "type": "uint256"
        }
      ],
      "stateMutability": "view",
      "type": "function",
      "constant": true
    },
    {
      "inputs": [
        {
          "internalType": "uint256",
          "name": "amount",
          "type": "uint256"
        }
      ],
      "name": "performArb",
      "outputs": [
        {
          "internalType": "bytes32",
          "name": "",
          "type": "bytes32"
        }
      ],
      "stateMutability": "nonpayable",
      "type": "function"
    },
    {
      "inputs": [
        {
          "internalType": "bytes32",
          "name": "key",
          "type": "bytes32"
        }
      ],
      "name": "retrieveArb",
      "outputs": [
        {
          "internalType": "address",
          "name": "",
          "type": "address"
        },
        {
          "internalType": "uint256",
          "name": "",
          "type": "uint256"
        }
      ],
      "stateMutability": "view",
      "type": "function",
      "constant": true
    },
    {
      "inputs": [
        {
          "internalType": "address",
          "name": "trader",
          "type": "address"
        },
        {
          "internalType": "uint256",
          "name": "amount",
          "type": "uint256"
        }
      ],
      "name": "getKey",
      "outputs": [
        {
          "internalType": "bytes32",
          "name": "",
          "type": "bytes32"
        }
      ],
      "stateMutability": "pure",
      "type": "function",
      "constant": true
    }
  ],
  "bytecode": "0x608060405234801561001057600080fd5b50610575806100206000396000f3fe608060405234801561001057600080fd5b506004361061004b5760003560e01c8062162420146100505780631e5edbb314610081578063a369f72e146100b1578063d65e29e9146100e1575b600080fd5b61006a6004803603810190610065919061030b565b610112565b604051610078929190610392565b60405180910390f35b61009b600480360381019061009691906103e7565b610156565b6040516100a89190610423565b60405180910390f35b6100cb60048036038101906100c6919061046a565b610205565b6040516100d89190610423565b60405180910390f35b6100fb60048036038101906100f6919061030b565b610238565b604051610109929190610392565b60405180910390f35b60006020528060005260406000206000915090508060000160009054906101000a900473ffffffffffffffffffffffffffffffffffffffff16908060010154905082565b6000806101633384610205565b9050600060405180604001604052803373ffffffffffffffffffffffffffffffffffffffff1681526020018581525090508060008084815260200190815260200160002060008201518160000160006101000a81548173ffffffffffffffffffffffffffffffffffffffff021916908373ffffffffffffffffffffffffffffffffffffffff160217905550602082015181600101559050508192505050919050565b6000828260405160200161021a929190610513565b60405160208183030381529060405280519060200120905092915050565b60008060008060008581526020019081526020016000206040518060400160405290816000820160009054906101000a900473ffffffffffffffffffffffffffffffffffffffff1673ffffffffffffffffffffffffffffffffffffffff1673ffffffffffffffffffffffffffffffffffffffff1681526020016001820154815250509050806000015181602001519250925050915091565b600080fd5b6000819050919050565b6102e8816102d5565b81146102f357600080fd5b50565b600081359050610305816102df565b92915050565b600060208284031215610321576103206102d0565b5b600061032f848285016102f6565b91505092915050565b600073ffffffffffffffffffffffffffffffffffffffff82169050919050565b600061036382610338565b9050919050565b61037381610358565b82525050565b6000819050919050565b61038c81610379565b82525050565b60006040820190506103a7600083018561036a565b6103b46020830184610383565b9392505050565b6103c481610379565b81146103cf57600080fd5b50565b6000813590506103e1816103bb565b92915050565b6000602082840312156103fd576103fc6102d0565b5b600061040b848285016103d2565b91505092915050565b61041d816102d5565b82525050565b60006020820190506104386000830184610414565b92915050565b61044781610358565b811461045257600080fd5b50565b6000813590506104648161043e565b92915050565b60008060408385031215610481576104806102d0565b5b600061048f85828601610455565b92505060206104a0858286016103d2565b9150509250929050565b60008160601b9050919050565b60006104c2826104aa565b9050919050565b60006104d4826104b7565b9050919050565b6104ec6104e782610358565b6104c9565b82525050565b6000819050919050565b61050d61050882610379565b6104f2565b82525050565b600061051f82856104db565b60148201915061052f82846104fc565b602082019150819050939250505056fea26469706673582212209cc91b244270820e556e5afef0810c0a897b9baef51d67613d2874f7943640d864736f6c634300080c0033",
  "immutableReferences": {},
  "source": "// SPDX-License-Identifier: MIT\npragma solidity >=0.4.22 <0.9.0;\n\ncontract Arbitrage {\n  struct Arb {\n    address trader;\n    uint256 amount;    \n  }\n\n  mapping(bytes32 => Arb) public trades;\n\n  constructor() {\n  } \n\n  function performArb \n    (     \n      uint256 amount\n    ) public \n    returns (bytes32) {\n      \n    bytes32 key = getKey(msg.sender, amount);\n    Arb memory arb = Arb(msg.sender, amount);\n    trades[key] = arb;\n    return key;\n  }\n\n  function retrieveArb\n  (\n    bytes32 key\n  ) public view\n  returns(address, uint256)\n  {\n    Arb memory trade = trades[key];\n    return (trade.trader, trade.amount);\n  }\n\n  function getKey\n  (\n    address trader,\n    uint256 amount\n  ) public pure\n  returns (bytes32) \n  {\n    return keccak256(abi.encodePacked(trader, amount));\n  }\n}\n",
  "sourcePath": "C:\\ws\\blockchain-env-docker\\Contracts\\contracts\\Arbitrage.sol",
  "compiler": {
    "name": "solc",
    "version": "0.8.12+commit.f00d7308.Emscripten.clang"
  },
  "schemaVersion": "3.4.6",
  "updatedAt": "2022-04-03T16:29:56.115Z",
  "networkType": "ethereum",
  "devdoc": {
    "kind": "dev",
    "methods": {},
    "version": 1
  },
  "userdoc": {
    "kind": "user",
    "methods": {},
    "version": 1
  }
}